:100000006F00E05F00000000AE040000B0040000DC
:1000100000000000000000000000000000000000E0
:1000200000000000000000000000000000000000D0
:100030009804000000000000FC0500000000000023
:10004000FC050000FC050000FC050000FC050000AC
:10005000FC050000FC050000FC050000FC0500009C
:10006000FC050000FC050000FC050000FC0500008C
:10007000FC050000FC050000FC050000FC0500007C
:10008000C6030000FC050000FC050000FC050000A4
:10009000FC050000FC050000FC0500003C0200001F
:0800A000FC0500000000000057
:1000A800511126C022C206C4828282441244A24050
:1000B80031018280634E050263C305042E86AA853A
:1000C8007D5515C285466378B6006356C00006069E
:1000D8008606E36CB6FE014563E4C500918D558D37
:1000E80085820582F5FA82808682C93F2E858282C2
:1000F8003305A0406347B000B305B040C1B7B305AE
:10010800B0408682653F3305A0408282868263C7FD
:100118000500634905005D372E858282B305B0402E
:10012800E35B05FE3305A040513F3305B0408282B2
:1001380000008357451095C783572510AA979C231D
:100148009CA183572510850793F7F70F2311F51006
:1001580083574510FD17C207C1832312F5100545C3
:10016800828001458280EFF2BFF309641301C1FD6B
:1001780013051402854502C402C602C802CA02CC8D
:1001880002CE02D002C002C2EF0030203705240898
:10019800854513050503AD23E1473EC8B717014060
:1001A800854411472C0013850740788426C6C92941
:1001B800B7170140A14611472C00138507401304C7
:1001C800045874843AC86D2922CA374400404C0840
:1001D800B7070C00130504403ECE02CC23100102E1
:1001E800EF00901C930770127C800A8589475C8118
:1001F80026C2EF00500905461305044093055052E6
:10020800EF007025130504408545EF009023930700
:1002180000027C842C00C147371501403EC826C621
:10022800852101469305000237150140E921130194
:100238004102A5BD611122C23744004093055052C6
:1002480013050440EF00B02521C513050440EF0055
:100258009024B70700209387471483D64710137557
:10026800F50FC8811307F00F6364D70203D707108F
:100278003E9708A303D7071005071377F70F2390B6
:10028800E71003D747100507420741832392E71079
:10029800374400409305707213050440EF00302086
:1002A80011CD37050020930531001305C5035135DD
:1002B80011C98C8113050440EF00701D12442101FF
:1002C8007300203001469305707213050440EF0057
:1002D8009018B7070020238C0702CDB70357452095
:1002E80005CFEFF2FFDB03572520AE872A842A9734
:1002F8001823B28598A3035525200505013D42051D
:1003080041812311A420835744200545FD17C207C6
:10031800C1832312F42051BB01458280EFF25FD8DC
:1003280011651301C1FD85451305050202C402C606
:1003380002C802CA02CC02CE02D002C002C2EF003A
:10034800D004371401409307000285447C842C00B4
:10035800E1471305044026C63EC81D26930700043E
:100368007C842C009147130504403EC8112EF16788
:1003780037440140938707204C083ECA1305048080
:10038800B7070C003ECE02CC23100102EF00D001CB
:10039800930700120A857C80448126C2EF00A06E74
:1003A80005461305048093055052EF00D00A854591
:1003B80013050480EF00F00813014102FDB161113B
:1003C80022C2374401409305505213050480EF00C0
:1003D800100D31C113050480EF00F00B9387C1C1E4
:1003E80083D647201375F50FC8811307F01F636480
:1003F800D70203D707203E9708A303D7072005078E
:100408001377F71F2390E72003D7472005074207F4
:1004180041832392E7203744014093057072130506
:100428000480EF00D00711CD1306000893053100B2
:10043800138541A1653511C98C8113050480EF002E
:100448001005124421017300203001469305707293
:1004580013050480EF003000238901A0DDB7EFF217
:100468003FC437F400E02322040023240400B70724
:10047800002003A507019305803E89317D1508C832
:10048800B7E700E0056723A0E710BD471CC031B9F6
:1004980083A741E2850723A2F1E2B7F700E023A290
:1004A80007007300203001A0B707EFBE37E700E070
:1004B800938707083CC701A0EFF29FBE0545C923F3
:1004C800C9289307800873A00730513F813D6139DF
:1004D80001A0EFF2FFBC8946B7270240371402405B
:1004E80094C31C403707FF68C17493E717001CC00A
:1004F8005C40FD14F98F5CC01C403707D7FE6D17B0
:10050800F98F37071000D98F1CC01C403707FCFF34
:100518007D17F98F1CC05C40E58F5CC0B7079D0054
:100528001CC41C4C93E707021CCCB71701409387E7
:10053800074098431377F7F098C398431367070861
:1005480098C394CBB92C5C4037070001B70600026A
:100558005CC05C40E58F5CC05C405CC01C40D98FCF
:100568001CC0B71702409843758F75DFD843B7167C
:100578000240719BD8C3D84313672700D8C32147CB
:10058800DC42B18BE39EE7FEB7270240094798C3D8
:1005980029BE371702405C43A146B18B6392D7044A
:1005A8005C433775DC02130505C0B7160240D84214
:1005B800B70700209387070011833D8BBA979C23C8
:1005C800D84293F5F70F13770708B357F50011EFE3
:1005D800EFF21FADE534370700202328A700F1B458
:1005E80037356E0113050560C9B737070020232882
:1005F800F700828001A0970100209381A1231711A1
:1006080000201301A11F170500001305656D97054C
:1006180000209385A59E170600201306A6A163FA5D
:10062800C5008322050023A0550011059105E3EAC2
:10063800C5FE170500201305E59F9385C1E2637782
:10064800B500232005001105E36DB5FE896293828C
:100658000288739002308D427390428097020000A6
:100668009382C29993E2320073905230EFF07FE6A2
:1006780097020000938282E4739012347300203052
:10068800944593F7060113F3F60081C7DC41336301
:10069800F30083D2050093F7F20FA9CF0C41611143
:1006A80022C226C08147930380023D4493048004FC
:1006B80005473317F70033F6E2006310C702639764
:1006C800760258C9139627003317C4001347F7FF5B
:1006D8006D8F3316C300B365E60085072147E3999C
:1006E800E7FC12440CC1824421018280E39C96FC01
:1006F80018C9C9BF828019C20CC982804CC98280BE
:1007080037030140B70700088326C30013560501C5
:1007180013170501E98F3D8A4183BDC7B70730002C
:10072800B372F5006394F202370600F97D16B3F749
:10073800C6008326C300F18E2326D30095C54581C4
:10074800137505073317A700D98F39A8B7074000D5
:10075800E98F99CF9D47B397C70093C7F7FFF58FE8
:1007680081C53316C700D18F370701405CC7828027
:10077800B70720006393F20041069D47B397C7006F
:1007880093C7F7FFF58F5DBFB7071000E98F99C3CF
:10079800BD47EDB79357150193F70707B317F70050
:1007A800C5B7EFF2FF8F511185451305C00302C08D
:1007B80002C202C4D92EB7F7FF1F03A74770B706B6
:1007C8005200938606609377F7F06386D70A63E250
:1007D800F60CB7062400938606606380D72063E092
:1007E800F604B706220093860660638FD72463EF6A
:1007F800F600C1779387F7F0F98F370720001307C2
:100808000760639BE7009307900F35A8370723001D
:10081800130707606384E72031016FF01F89B7066B
:100828005000938606606383D71A63E0F604C177A5
:100838009387F7F07D8FB707400093870760E39DA4
:10084800E7FC9307900E371401407C808A85930754
:100858008002130504803EC425359307F0077C8089
:100868008A85130504C0293D45BF37075100130782
:100878000760E393E7FA93079006371401407C80FA
:100888008A8593078002130504803EC4D53BAD4793
:10089800F9B73707640013070760E386E7F6636173
:1008A800F7063707620013070760E38CE7F863640D
:1008B800F7043707530013070760638DE70C370702
:1008C800610013070760E399E7F4930700083714FA
:1008D80001407C808A8593078002130504803EC40A
:1008E8004533930740078A85130504C07C80493B3C
:1008F8009307800CADA0370763001307076081B723
:1009080037177300130707806386E702636BF700E6
:1009180037177000130707806388E70437077100EB
:100928004DB73717740013070780E397E7EE93076F
:10093800000C71BF9307000C371401407C808A8536
:1009480093078002130504803EC41D3B93074007AC
:100958008A85130504C07C8025339307900C7C801E
:100968008A853715014001B79307000C37140140F9
:100978007C808A8593078002130504803EC409336E
:10098800930740078A85130504C07C80D5399307EF
:10099800B00CF1B793079006371401407C808A8524
:1009A80093078002130504803EC4D939AD478A8570
:1009B800130504C07C80E9319307C0028A85371586
:1009C80001407C8075399307C006A1A09307800C6D
:1009D8007C80930780023EC461B79307900F371459
:1009E80001407C808A8593078002130504803EC4F9
:1009F80041399307F0078A85130504C07C80493183
:100A08009307900E8A85371501407C8095399307A6
:100A1800D0087C808A8513050440B1B59307900FF0
:100A2800371401407C808A8593078002130504806F
:100A38003EC4B9319307F0078A85130504C07C804A
:100A48008131930760029DBF9307900F37140140CF
:100A58007C808A8593078002130504803EC40D318B
:100A68009307F0078A85130504C07C801139930722
:100A780000028A85371501407C801931B54751BF7E
:100A880023A4A1E2828003A781E285471421631091
:100A9800F7021C31639CE7023C219A0793E707F8A9
:100AA80037E700E093F7F70F36972300F74005473D
:100AB80093D756003317D700544189CE938707043C
:100AC8008A07B7E600E0B69798C38280EDF33C2129
:100AD8009A07F9B793870706B7E600E08A07B6973B
:100AE80098C30F1000008280EFF28FDB37170240A7
:100AF8005C43A1462A84B18B6394D7085C43B777DB
:100B0800DC02938707C01CC03716024054423707DF
:100B18000020130787029182BD8A3697082358421E
:100B28009375F50F1377070833D5A70001E73E85BE
:100B3800EFF0CFD848C008C448C4B7170240DC4318
:100B48008D46AD83FD8B13D737008A07F18BD98F7C
:100B580013F6370113F7370063F4C600138747FF0E
:100B6800B7170240DC4363CA0700B7070020938722
:100B78004701BA978C23EFF06FD408C86FF0EFD213
:100B8800B7376E0193870760BDBF99C53717024015
:100B98001C4FC98F1CCF8280B7170240984F13454E
:100BA800F5FF798D88CF8280EFF28FCF1629F57700
:100BB800FD17FD8EFE21DA252111D58F1EA9562598
:100BC800FD779387379FFD8EDE212A84AE84D58FEB
:100BD8009625D58FB625D58F5EA55E29C207C18318
:100BE80093F7F7CFD98F5EA94800FD3DB74701407D
:100BF800938707806315F404C24765453385A702C8
:100C08008C408A05EFF08FCB930540062AC0EFF0A1
:100C1800EFCA93144500024593054006EFF0CFCC88
:100C280012059305400613052503EFF02FC93D89EA
:100C3800458D420541810AA461016FF00FC7B24793
:100C48006DBF5E2589C50967D98F5EA582807977D2
:100C58007D17F98FDDBF13F7F50F85471583B3951A
:100C6800B7006319F7009307C500984301CE4D8F6D
:100C780098C38280894693074501E318D7FE9307F6
:100C88000501E5B793C5F5FFF98D8CC3828093F50F
:100C9800F51F4EA182804A211375F51F828013F734
:100CA800F50F85461583AA873395B6006310D702DA
:100CB800DA279E23798DC207C18301C9A18105471F
:100CC8003317B700F98F3335F000828089466314F3
:0C0CD800D7009A2BF9BFDA2BE9BF00000F
:100CE40001020304050607080102030405060708B8
:100CF400006CDC020204060804080C10081018201A
:100D040010203040204060800102030405060708DB
:080D14000102030405060708B3
:00000001FF
